:100000000C9434000C9451000C9451000C94510049
:100010000C9451000C9451000C9451000C9451001C
:100020000C9451000C9451000C9451000C9451000C
:100030000C9451000C9451000C9451000C945100FC
:100040000C9451000C9451000C9451000C945100EC
:100050000C9451000C9451000C9451000C945100DC
:100060000C9451000C94510011241FBECFEFD8E026
:10007000DEBFCDBF21E0A4E1B1E001C01D92AA31F5
:10008000B207E1F711E0A0E0B1E0E2E7F7E002C07B
:1000900005900D92A431B107D9F70E946C000C9421
:1000A000B7030C9400008091C00087FFFCCF8091C3
:1000B000C60090E00895CF93C82F8A3019F48DE0E0
:1000C0000E945B008091C00085FFFCCFC093C600FA
:1000D00080E090E0CF910895249A25981092C50071
:1000E00087E68093C4008091C0008D7F8093C0001C
:1000F00086E08093C20088E18093C10080E091E0B7
:100100009093170180931601909315018093140129
:100110008AE3C82ED12CE12CF12C0EE011E02C9AB0
:1001200025E32A95F1F700002C981D9BFECF60E097
:1001300070E0CB011D9B12C025E02A95F1F700006D
:10014000CF5FCD3029F06F5F7F4F8F4F9F4FF2CF42
:10015000655F7F4F8F4F9F4FC0E0ECCFA7019601A7
:100160000E94CA005F934F933F932F931F930F9367
:100170000E94EC008FEF99E628E1815090402040EA
:10018000E1F700C000000F900F900F900F900F90BC
:100190000F90C5CFA1E21A2EAA1BBB1BFD010DC0FB
:1001A000AA1FBB1FEE1FFF1FA217B307E407F50727
:1001B00020F0A21BB30BE40BF50B661F771F881F03
:1001C000991F1A9469F760957095809590959B0199
:1001D000AC01BD01CF010895A0E0B0E0E2EFF0E096
:1001E0000C949003AE014B5F5F4FFA0161917191E6
:1001F000AF0180911601909117010E940201E2E087
:100200000C94AC03ACE0B0E0E8E0F1E00C948003C7
:100210007C016B018A01FC0117821682838181FFB8
:10022000BDC1CE0101964C01F7019381F60193FD0A
:10023000859193FF81916F01882309F4ABC18532C9
:1002400039F493FD859193FF81916F01853229F4F3
:10025000B70190E00E94EA02E7CF512C312C20E058
:100260002032A0F48B3269F030F4803259F08332BE
:1002700069F420612CC08D3239F0803339F421606B
:1002800026C02260246023C0286021C027FD27C02B
:1002900030ED380F3A3078F426FF06C0FAE05F9E62
:1002A000300D1124532E13C08AE0389E300D1124D6
:1002B000332E20620CC08E3221F426FD6BC12064E7
:1002C00006C08C3611F4206802C0883641F4F6016D
:1002D00093FD859193FF81916F018111C1CF982F7B
:1002E0009F7D9554933028F40C5F1F4FFFE3F983F3
:1002F0000DC0833631F0833771F0833509F05BC070
:1003000022C0F801808189830E5F1F4F44244394EB
:10031000512C540115C03801F2E06F0E711CF80128
:10032000A080B18026FF03C0652D70E002C06FEF92
:100330007FEFC5012C870E94DF022C0183012C85F1
:100340002F77222E17C03801F2E06F0E711CF801D2
:10035000A080B18026FF03C0652D70E002C06FEF62
:100360007FEFC5012C870E94D4022C012C852068C8
:10037000222E830123FC1BC0832D90E048165906D2
:10038000B0F4B70180E290E00E94EA023A94F4CF20
:10039000F50127FC859127FE81915F01B70190E06F
:1003A0000E94EA0231103A94F1E04F1A51084114C8
:1003B000510471F7E5C0843611F0893639F5F8013A
:1003C00027FF07C060817181828193810C5F1F4F7D
:1003D00008C060817181072E000C880B990B0E5F9D
:1003E0001F4F2F76722E97FF09C0909580957095BC
:1003F00061957F4F8F4F9F4F2068722E2AE030E02B
:10040000A4010E942203A82EA81844C0853729F40D
:100410002F7EB22E2AE030E025C0F22FF97FBF2ECA
:100420008F36C1F018F4883579F0B4C0803719F0F0
:10043000883721F0AFC02F2F2061B22EB4FE0DC03F
:100440008B2D8460B82E09C024FF0AC09F2F9660B0
:10045000B92E06C028E030E005C020E130E002C03F
:1004600020E132E0F801B7FE07C06081718182812E
:1004700093810C5F1F4F06C06081718180E090E026
:100480000E5F1F4FA4010E942203A82EA818FB2D67
:10049000FF777F2E76FE0BC0372D3E7FA51450F4DC
:1004A00074FE0AC072FC08C0372D3E7E05C0BA2C0F
:1004B000372D03C0BA2C01C0B52C34FF0DC0FE018E
:1004C000EA0DF11D8081803311F4397E09C032FFBD
:1004D00006C0B394B39404C0832F867809F0B39414
:1004E00033FD13C030FF06C05A2CB31418F4530C5C
:1004F0005B18B32CB31468F4B70180E290E03C873A
:100500000E94EA02B3943C85F5CFB31410F43B1873
:1005100001C0312C34FF12C0B70180E390E03C876A
:100520000E94EA023C8532FF17C031FD03C088E714
:1005300090E002C088E590E0B7010CC0832F867878
:1005400059F031FF02C08BE201C080E237FD8DE23D
:10055000B70190E00E94EA02A51438F4B70180E3E5
:1005600090E00E94EA025A94F7CFAA94F401EA0DAF
:10057000F11D8081B70190E00E94EA02A110F5CF41
:10058000332009F451CEB70180E290E00E94EA02E4
:100590003A94F6CFF7018681978102C08FEF9FEFE3
:1005A0002C96E2E10C949C03FC0105906150704094
:1005B0000110D8F7809590958E0F9F1F0895FC012C
:1005C0006150704001900110D8F7809590958E0F82
:1005D0009F1F08950F931F93CF93DF93FB012381F8
:1005E00021FD03C08FEF9FEF28C022FF16C0468178
:1005F0005781248135814217530744F4A081B1818A
:100600009D012F5F3F4F318320838C93268137815B
:100610002F5F3F4F3783268310C0EB01092F182F20
:100620000084F185E02D0995892BE1F68E819F816B
:1006300001969F838E83812F902FDF91CF911F9101
:100640000F910895FA01AA27283051F1203181F144
:10065000E8946F936E7F6E5F7F4F8F4F9F4FAF4FCA
:10066000B1E03ED0B4E03CD0670F781F891F9A1FDD
:10067000A11D680F791F8A1F911DA11D6A0F711D91
:10068000811D911DA11D20D009F468943F912AE09D
:10069000269F11243019305D3193DEF6CF01089585
:1006A000462F4770405D4193B3E00FD0C9F7F6CFB6
:1006B000462F4F70405D4A3318F0495D31FD40527E
:1006C000419302D0A9F7EACFB4E0A6959795879514
:1006D00077956795BA95C9F70097610571050895F3
:1006E0009B01AC010A2E069457954795379527959F
:1006F000BA95C9F7620F731F841F951FA01D089537
:100700002F923F924F925F926F927F928F929F9221
:10071000AF92BF92CF92DF92EF92FF920F931F930F
:10072000CF93DF93CDB7DEB7CA1BDB0B0FB6F894C0
:10073000DEBF0FBECDBF09942A88398848885F8400
:100740006E847D848C849B84AA84B984C884DF8071
:10075000EE80FD800C811B81AA81B981CE0FD11D55
:100760000FB6F894DEBF0FBECDBFED010895F8942B
:02077000FFCFB9
:1007720000000003000000005B0053000000256C35
:04078200750A0000F4
:00000001FF
