:100000000C9434000C943E000C943E000C943E0082
:100010000C943E000C943E000C943E000C943E0068
:100020000C943E000C943E000C943E000C943E0058
:100030000C943E000C943E000C943E000C943E0048
:100040000C943E000C943E000C943E000C943E0038
:100050000C943E000C943E000C943E000C943E0028
:100060000C943E000C943E0011241FBECFEFD8E04C
:10007000DEBFCDBF0E9482000C94E8000C9400000B
:1000800082309105E9F034F4009759F08130910500
:1000900079F0089583309105C9F084309105F1F02D
:1000A00008955E985C985D985F982898299806C096
:1000B0005C9A5D985E985F9A289A299A2A9A089580
:1000C0005C985D985E9A5F98289805C05C985D98EA
:1000D0005E985F98289A299A2A9808955C9A5D9864
:1000E0005E985F9A289A29982A980895FC012081A1
:1000F0003181C901019665E070E00E94C0009183E2
:1001000080830895CF93DF9300D0CDB7DEB787EF1C
:1001100084B98FEF8AB91A82198223982B9A898120
:100120009A818230910599F03CF4009769F001972B
:10013000A9F481E090E010C08330910559F0049754
:1001400069F484E090E008C080E090E005C082E0BF
:1001500090E002C083E090E00E9440001B99DFCF56
:10016000CE0101960E9476001B9907C08FE39CE99F
:100170000197F1F700C00000F7CF1B9BFECFCFCF58
:1001800097FB072E16F4009407D077FD09D00E9444
:10019000D40007FC05D03EF4909581959F4F0895BB
:1001A000709561957F4F0895AA1BBB1B51E107C055
:1001B000AA1FBB1FA617B70710F0A61BB70B881FF7
:1001C000991F5A95A9F780959095BC01CD01089586
:0401D000F894FFCFD1
:00000001FF
