:100000000C9434000C943E000C943E000C943E0082
:100010000C943E000C943E000C943E000C943E0068
:100020000C943E000C943E000C943E000C943E0058
:100030000C943E000C943E000C943E000C943E0048
:100040000C943E000C943E000C943E000C943E0038
:100050000C943E000C943E000C943E000C943E0028
:100060000C943E000C943E0011241FBECFEFD8E04C
:10007000DEBFCDBF0E9440000C94B6000C9400007F
:1000800087EF84B98FEF8AB923982B9A80E090E0AC
:1000900025E030E08230910511F164F40097B9F069
:1000A0008130910549F55C9A5D985E985F9A289A2F
:1000B000299A13C083309105C1F084309105E1F491
:1000C0005C9A5D985E985F9A289A299814C05E9809
:1000D0005C985D985F98289829982A9A0DC05C983A
:1000E0005D985E9A5F98289805C05C985D985E98C8
:1000F0005F98289A299A2A981B99CCCF0196B90122
:100100000E948E001B9907C0EFE3FCE93197F1F7DD
:1001100000C00000F7CF1B9BFECFBCCF97FB072E84
:1001200016F4009407D077FD09D00E94A20007FCC6
:1001300005D03EF4909581959F4F089570956195F7
:100140007F4F0895AA1BBB1B51E107C0AA1FBB1F0D
:10015000A617B70710F0A61BB70B881F991F5A9553
:10016000A9F780959095BC01CD010895F894FFCF33
:00000001FF
